{
  "_format": "hh-sol-artifact-1",
  "contractName": "AttestationNFT",
  "sourceName": "contracts/AttestationNFT.sol",
  "abi": [
    {
      "inputs": [],
      "stateMutability": "nonpayable",
      "type": "constructor"
    },
    {
      "inputs": [],
      "name": "ApprovalCallerNotOwnerNorApproved",
      "type": "error"
    },
    {
      "inputs": [],
      "name": "ApprovalQueryForNonexistentToken",
      "type": "error"
    },
    {
      "inputs": [],
      "name": "ApprovalToCurrentOwner",
      "type": "error"
    },
    {
      "inputs": [],
      "name": "ApproveToCaller",
      "type": "error"
    },
    {
      "inputs": [],
      "name": "BalanceQueryForZeroAddress",
      "type": "error"
    },
    {
      "inputs": [],
      "name": "MintToZeroAddress",
      "type": "error"
    },
    {
      "inputs": [],
      "name": "MintZeroQuantity",
      "type": "error"
    },
    {
      "inputs": [],
      "name": "OwnerQueryForNonexistentToken",
      "type": "error"
    },
    {
      "inputs": [],
      "name": "TransferCallerNotOwnerNorApproved",
      "type": "error"
    },
    {
      "inputs": [],
      "name": "TransferFromIncorrectOwner",
      "type": "error"
    },
    {
      "inputs": [],
      "name": "TransferToNonERC721ReceiverImplementer",
      "type": "error"
    },
    {
      "inputs": [],
      "name": "TransferToZeroAddress",
      "type": "error"
    },
    {
      "inputs": [],
      "name": "URIQueryForNonexistentToken",
      "type": "error"
    },
    {
      "anonymous": false,
      "inputs": [
        {
          "indexed": true,
          "internalType": "address",
          "name": "owner",
          "type": "address"
        },
        {
          "indexed": true,
          "internalType": "address",
          "name": "approved",
          "type": "address"
        },
        {
          "indexed": true,
          "internalType": "uint256",
          "name": "tokenId",
          "type": "uint256"
        }
      ],
      "name": "Approval",
      "type": "event"
    },
    {
      "anonymous": false,
      "inputs": [
        {
          "indexed": true,
          "internalType": "address",
          "name": "owner",
          "type": "address"
        },
        {
          "indexed": true,
          "internalType": "address",
          "name": "operator",
          "type": "address"
        },
        {
          "indexed": false,
          "internalType": "bool",
          "name": "approved",
          "type": "bool"
        }
      ],
      "name": "ApprovalForAll",
      "type": "event"
    },
    {
      "anonymous": false,
      "inputs": [
        {
          "indexed": true,
          "internalType": "address",
          "name": "from",
          "type": "address"
        },
        {
          "indexed": true,
          "internalType": "address",
          "name": "to",
          "type": "address"
        },
        {
          "indexed": true,
          "internalType": "uint256",
          "name": "tokenId",
          "type": "uint256"
        }
      ],
      "name": "Transfer",
      "type": "event"
    },
    {
      "inputs": [
        {
          "internalType": "address",
          "name": "to",
          "type": "address"
        },
        {
          "internalType": "uint256",
          "name": "tokenId",
          "type": "uint256"
        }
      ],
      "name": "approve",
      "outputs": [],
      "stateMutability": "nonpayable",
      "type": "function"
    },
    {
      "inputs": [
        {
          "internalType": "address",
          "name": "owner",
          "type": "address"
        }
      ],
      "name": "balanceOf",
      "outputs": [
        {
          "internalType": "uint256",
          "name": "",
          "type": "uint256"
        }
      ],
      "stateMutability": "view",
      "type": "function"
    },
    {
      "inputs": [
        {
          "internalType": "uint256",
          "name": "tokenId",
          "type": "uint256"
        }
      ],
      "name": "getApproved",
      "outputs": [
        {
          "internalType": "address",
          "name": "",
          "type": "address"
        }
      ],
      "stateMutability": "view",
      "type": "function"
    },
    {
      "inputs": [
        {
          "internalType": "uint256",
          "name": "tokenId",
          "type": "uint256"
        }
      ],
      "name": "getSoulId",
      "outputs": [
        {
          "internalType": "uint256",
          "name": "",
          "type": "uint256"
        }
      ],
      "stateMutability": "view",
      "type": "function"
    },
    {
      "inputs": [
        {
          "internalType": "address",
          "name": "owner",
          "type": "address"
        },
        {
          "internalType": "address",
          "name": "operator",
          "type": "address"
        }
      ],
      "name": "isApprovedForAll",
      "outputs": [
        {
          "internalType": "bool",
          "name": "",
          "type": "bool"
        }
      ],
      "stateMutability": "view",
      "type": "function"
    },
    {
      "inputs": [
        {
          "internalType": "string",
          "name": "uri",
          "type": "string"
        },
        {
          "internalType": "uint256",
          "name": "soulId",
          "type": "uint256"
        }
      ],
      "name": "mint",
      "outputs": [
        {
          "internalType": "uint256",
          "name": "",
          "type": "uint256"
        }
      ],
      "stateMutability": "nonpayable",
      "type": "function"
    },
    {
      "inputs": [],
      "name": "name",
      "outputs": [
        {
          "internalType": "string",
          "name": "",
          "type": "string"
        }
      ],
      "stateMutability": "view",
      "type": "function"
    },
    {
      "inputs": [
        {
          "internalType": "uint256",
          "name": "tokenId",
          "type": "uint256"
        }
      ],
      "name": "ownerOf",
      "outputs": [
        {
          "internalType": "address",
          "name": "",
          "type": "address"
        }
      ],
      "stateMutability": "view",
      "type": "function"
    },
    {
      "inputs": [
        {
          "internalType": "address",
          "name": "from",
          "type": "address"
        },
        {
          "internalType": "address",
          "name": "to",
          "type": "address"
        },
        {
          "internalType": "uint256",
          "name": "tokenId",
          "type": "uint256"
        }
      ],
      "name": "safeTransferFrom",
      "outputs": [],
      "stateMutability": "nonpayable",
      "type": "function"
    },
    {
      "inputs": [
        {
          "internalType": "address",
          "name": "from",
          "type": "address"
        },
        {
          "internalType": "address",
          "name": "to",
          "type": "address"
        },
        {
          "internalType": "uint256",
          "name": "tokenId",
          "type": "uint256"
        },
        {
          "internalType": "bytes",
          "name": "_data",
          "type": "bytes"
        }
      ],
      "name": "safeTransferFrom",
      "outputs": [],
      "stateMutability": "nonpayable",
      "type": "function"
    },
    {
      "inputs": [
        {
          "internalType": "address",
          "name": "operator",
          "type": "address"
        },
        {
          "internalType": "bool",
          "name": "approved",
          "type": "bool"
        }
      ],
      "name": "setApprovalForAll",
      "outputs": [],
      "stateMutability": "nonpayable",
      "type": "function"
    },
    {
      "inputs": [
        {
          "internalType": "bytes4",
          "name": "interfaceId",
          "type": "bytes4"
        }
      ],
      "name": "supportsInterface",
      "outputs": [
        {
          "internalType": "bool",
          "name": "",
          "type": "bool"
        }
      ],
      "stateMutability": "view",
      "type": "function"
    },
    {
      "inputs": [],
      "name": "symbol",
      "outputs": [
        {
          "internalType": "string",
          "name": "",
          "type": "string"
        }
      ],
      "stateMutability": "view",
      "type": "function"
    },
    {
      "inputs": [
        {
          "internalType": "uint256",
          "name": "tokenId",
          "type": "uint256"
        }
      ],
      "name": "tokenURI",
      "outputs": [
        {
          "internalType": "string",
          "name": "",
          "type": "string"
        }
      ],
      "stateMutability": "view",
      "type": "function"
    },
    {
      "inputs": [],
      "name": "totalSupply",
      "outputs": [
        {
          "internalType": "uint256",
          "name": "",
          "type": "uint256"
        }
      ],
      "stateMutability": "view",
      "type": "function"
    },
    {
      "inputs": [
        {
          "internalType": "address",
          "name": "from",
          "type": "address"
        },
        {
          "internalType": "address",
          "name": "to",
          "type": "address"
        },
        {
          "internalType": "uint256",
          "name": "tokenId",
          "type": "uint256"
        }
      ],
      "name": "transferFrom",
      "outputs": [],
      "stateMutability": "nonpayable",
      "type": "function"
    }
  ],
  "bytecode": "0x60806040523480156200001157600080fd5b506040518060400160405280600481526020017f414e6674000000000000000000000000000000000000000000000000000000008152506040518060400160405280600f81526020017f4174746573746174696f6e204e6674000000000000000000000000000000000081525081600290816200008f91906200033f565b508060039081620000a191906200033f565b50620000b2620000c060201b60201c565b600081905550505062000426565b600090565b600081519050919050565b7f4e487b7100000000000000000000000000000000000000000000000000000000600052604160045260246000fd5b7f4e487b7100000000000000000000000000000000000000000000000000000000600052602260045260246000fd5b600060028204905060018216806200014757607f821691505b6020821081036200015d576200015c620000ff565b5b50919050565b60008190508160005260206000209050919050565b60006020601f8301049050919050565b600082821b905092915050565b600060088302620001c77fffffffffffffffffffffffffffffffffffffffffffffffffffffffffffffffff8262000188565b620001d3868362000188565b95508019841693508086168417925050509392505050565b6000819050919050565b6000819050919050565b6000620002206200021a6200021484620001eb565b620001f5565b620001eb565b9050919050565b6000819050919050565b6200023c83620001ff565b620002546200024b8262000227565b84845462000195565b825550505050565b600090565b6200026b6200025c565b6200027881848462000231565b505050565b5b81811015620002a0576200029460008262000261565b6001810190506200027e565b5050565b601f821115620002ef57620002b98162000163565b620002c48462000178565b81016020851015620002d4578190505b620002ec620002e38562000178565b8301826200027d565b50505b505050565b600082821c905092915050565b60006200031460001984600802620002f4565b1980831691505092915050565b60006200032f838362000301565b9150826002028217905092915050565b6200034a82620000c5565b67ffffffffffffffff811115620003665762000365620000d0565b5b6200037282546200012e565b6200037f828285620002a4565b600060209050601f831160018114620003b75760008415620003a2578287015190505b620003ae858262000321565b8655506200041e565b601f198416620003c78662000163565b60005b82811015620003f157848901518255600182019150602085019450602081019050620003ca565b868310156200041157848901516200040d601f89168262000301565b8355505b6001600288020188555050505b505050505050565b6124bc80620004366000396000f3fe608060405234801561001057600080fd5b50600436106101005760003560e01c806353513f0811610097578063a22cb46511610066578063a22cb465146102d3578063b88d4fde146102ef578063c87b56dd1461030b578063e985e9c51461033b57610100565b806353513f08146102255780636352211e1461025557806370a082311461028557806395d89b41146102b557610100565b8063095ea7b3116100d3578063095ea7b3146101b357806318160ddd146101cf57806323b872dd146101ed57806342842e0e1461020957610100565b806301ffc9a714610105578063056b01ce1461013557806306fdde0314610165578063081812fc14610183575b600080fd5b61011f600480360381019061011a9190611a7a565b61036b565b60405161012c9190611ac2565b60405180910390f35b61014f600480360381019061014a9190611c59565b61044d565b60405161015c9190611cc4565b60405180910390f35b61016d6104a3565b60405161017a9190611d5e565b60405180910390f35b61019d60048036038101906101989190611d80565b610535565b6040516101aa9190611dee565b60405180910390f35b6101cd60048036038101906101c89190611e35565b6105b1565b005b6101d76106b5565b6040516101e49190611cc4565b60405180910390f35b61020760048036038101906102029190611e75565b6106cc565b005b610223600480360381019061021e9190611e75565b6106dc565b005b61023f600480360381019061023a9190611d80565b6106fc565b60405161024c9190611cc4565b60405180910390f35b61026f600480360381019061026a9190611d80565b610719565b60405161027c9190611dee565b60405180910390f35b61029f600480360381019061029a9190611ec8565b61072f565b6040516102ac9190611cc4565b60405180910390f35b6102bd6107fe565b6040516102ca9190611d5e565b60405180910390f35b6102ed60048036038101906102e89190611f21565b610890565b005b61030960048036038101906103049190612002565b610a07565b005b61032560048036038101906103209190611d80565b610a7f565b6040516103329190611d5e565b60405180910390f35b61035560048036038101906103509190612085565b610b24565b6040516103629190611ac2565b60405180910390f35b60007f80ac58cd000000000000000000000000000000000000000000000000000000007bffffffffffffffffffffffffffffffffffffffffffffffffffffffff1916827bffffffffffffffffffffffffffffffffffffffffffffffffffffffff1916148061043657507f5b5e139f000000000000000000000000000000000000000000000000000000007bffffffffffffffffffffffffffffffffffffffffffffffffffffffff1916827bffffffffffffffffffffffffffffffffffffffffffffffffffffffff1916145b80610446575061044582610bb8565b5b9050919050565b60008060005490508360096000838152602001908152602001600020908161047591906122d1565b50826008600083815260200190815260200160002081905550610499336001610c22565b8091505092915050565b6060600280546104b2906120f4565b80601f01602080910402602001604051908101604052809291908181526020018280546104de906120f4565b801561052b5780601f106105005761010080835404028352916020019161052b565b820191906000526020600020905b81548152906001019060200180831161050e57829003601f168201915b5050505050905090565b600061054082610c40565b610576576040517fcf4700e400000000000000000000000000000000000000000000000000000000815260040160405180910390fd5b6006600083815260200190815260200160002060009054906101000a900473ffffffffffffffffffffffffffffffffffffffff169050919050565b60006105bc82610719565b90508073ffffffffffffffffffffffffffffffffffffffff168373ffffffffffffffffffffffffffffffffffffffff1603610623576040517f943f7b8c00000000000000000000000000000000000000000000000000000000815260040160405180910390fd5b8073ffffffffffffffffffffffffffffffffffffffff16610642610c8e565b73ffffffffffffffffffffffffffffffffffffffff16146106a55761066e81610669610c8e565b610b24565b6106a4576040517fcfb3b94200000000000000000000000000000000000000000000000000000000815260040160405180910390fd5b5b6106b0838383610c96565b505050565b60006106bf610d48565b6001546000540303905090565b6106d7838383610d4d565b505050565b6106f783838360405180602001604052806000815250610a07565b505050565b600060086000838152602001908152602001600020549050919050565b600061072482611201565b600001519050919050565b60008073ffffffffffffffffffffffffffffffffffffffff168273ffffffffffffffffffffffffffffffffffffffff1603610796576040517f8f4eb60400000000000000000000000000000000000000000000000000000000815260040160405180910390fd5b600560008373ffffffffffffffffffffffffffffffffffffffff1673ffffffffffffffffffffffffffffffffffffffff16815260200190815260200160002060000160009054906101000a900467ffffffffffffffff1667ffffffffffffffff169050919050565b60606003805461080d906120f4565b80601f0160208091040260200160405190810160405280929190818152602001828054610839906120f4565b80156108865780601f1061085b57610100808354040283529160200191610886565b820191906000526020600020905b81548152906001019060200180831161086957829003601f168201915b5050505050905090565b610898610c8e565b73ffffffffffffffffffffffffffffffffffffffff168273ffffffffffffffffffffffffffffffffffffffff16036108fc576040517fb06307db00000000000000000000000000000000000000000000000000000000815260040160405180910390fd5b8060076000610909610c8e565b73ffffffffffffffffffffffffffffffffffffffff1673ffffffffffffffffffffffffffffffffffffffff16815260200190815260200160002060008473ffffffffffffffffffffffffffffffffffffffff1673ffffffffffffffffffffffffffffffffffffffff16815260200190815260200160002060006101000a81548160ff0219169083151502179055508173ffffffffffffffffffffffffffffffffffffffff166109b6610c8e565b73ffffffffffffffffffffffffffffffffffffffff167f17307eab39ab6107e8899845ad3d59bd9653f200f220920489ca2b5937696c31836040516109fb9190611ac2565b60405180910390a35050565b610a12848484610d4d565b610a318373ffffffffffffffffffffffffffffffffffffffff1661148c565b15610a7957610a42848484846114af565b610a78576040517fd1a57ed600000000000000000000000000000000000000000000000000000000815260040160405180910390fd5b5b50505050565b6060600960008381526020019081526020016000208054610a9f906120f4565b80601f0160208091040260200160405190810160405280929190818152602001828054610acb906120f4565b8015610b185780601f10610aed57610100808354040283529160200191610b18565b820191906000526020600020905b815481529060010190602001808311610afb57829003601f168201915b50505050509050919050565b6000600760008473ffffffffffffffffffffffffffffffffffffffff1673ffffffffffffffffffffffffffffffffffffffff16815260200190815260200160002060008373ffffffffffffffffffffffffffffffffffffffff1673ffffffffffffffffffffffffffffffffffffffff16815260200190815260200160002060009054906101000a900460ff16905092915050565b60007f01ffc9a7000000000000000000000000000000000000000000000000000000007bffffffffffffffffffffffffffffffffffffffffffffffffffffffff1916827bffffffffffffffffffffffffffffffffffffffffffffffffffffffff1916149050919050565b610c3c8282604051806020016040528060008152506115ff565b5050565b600081610c4b610d48565b11158015610c5a575060005482105b8015610c87575060046000838152602001908152602001600020600001601c9054906101000a900460ff16155b9050919050565b600033905090565b826006600084815260200190815260200160002060006101000a81548173ffffffffffffffffffffffffffffffffffffffff021916908373ffffffffffffffffffffffffffffffffffffffff160217905550818373ffffffffffffffffffffffffffffffffffffffff168273ffffffffffffffffffffffffffffffffffffffff167f8c5be1e5ebec7d5bd14f71427d1e84f3dd0314c0f7b2291e5b200ac8c7c3b92560405160405180910390a4505050565b600090565b6000610d5882611201565b90508373ffffffffffffffffffffffffffffffffffffffff16816000015173ffffffffffffffffffffffffffffffffffffffff1614610dc3576040517fa114810000000000000000000000000000000000000000000000000000000000815260040160405180910390fd5b60008473ffffffffffffffffffffffffffffffffffffffff16610de4610c8e565b73ffffffffffffffffffffffffffffffffffffffff161480610e135750610e1285610e0d610c8e565b610b24565b5b80610e585750610e21610c8e565b73ffffffffffffffffffffffffffffffffffffffff16610e4084610535565b73ffffffffffffffffffffffffffffffffffffffff16145b905080610e91576040517f59c896be00000000000000000000000000000000000000000000000000000000815260040160405180910390fd5b600073ffffffffffffffffffffffffffffffffffffffff168473ffffffffffffffffffffffffffffffffffffffff1603610ef7576040517fea553b3400000000000000000000000000000000000000000000000000000000815260040160405180910390fd5b610f0485858560016119bf565b610f1060008487610c96565b6001600560008773ffffffffffffffffffffffffffffffffffffffff1673ffffffffffffffffffffffffffffffffffffffff16815260200190815260200160002060000160008282829054906101000a900467ffffffffffffffff160392506101000a81548167ffffffffffffffff021916908367ffffffffffffffff1602179055506001600560008673ffffffffffffffffffffffffffffffffffffffff1673ffffffffffffffffffffffffffffffffffffffff16815260200190815260200160002060000160008282829054906101000a900467ffffffffffffffff160192506101000a81548167ffffffffffffffff021916908367ffffffffffffffff1602179055506000600460008581526020019081526020016000209050848160000160006101000a81548173ffffffffffffffffffffffffffffffffffffffff021916908373ffffffffffffffffffffffffffffffffffffffff160217905550428160000160146101000a81548167ffffffffffffffff021916908367ffffffffffffffff16021790555060006001850190506000600460008381526020019081526020016000209050600073ffffffffffffffffffffffffffffffffffffffff168160000160009054906101000a900473ffffffffffffffffffffffffffffffffffffffff1673ffffffffffffffffffffffffffffffffffffffff160361118f57600054821461118e57878160000160006101000a81548173ffffffffffffffffffffffffffffffffffffffff021916908373ffffffffffffffffffffffffffffffffffffffff16021790555084602001518160000160146101000a81548167ffffffffffffffff021916908367ffffffffffffffff1602179055505b5b505050828473ffffffffffffffffffffffffffffffffffffffff168673ffffffffffffffffffffffffffffffffffffffff167fddf252ad1be2c89b69c2b068fc378daa952ba7f163c4a11628f55a4df523b3ef60405160405180910390a46111fa85858560016119c5565b5050505050565b6112096119cb565b600082905080611217610d48565b1161145557600054811015611454576000600460008381526020019081526020016000206040518060600160405290816000820160009054906101000a900473ffffffffffffffffffffffffffffffffffffffff1673ffffffffffffffffffffffffffffffffffffffff1673ffffffffffffffffffffffffffffffffffffffff1681526020016000820160149054906101000a900467ffffffffffffffff1667ffffffffffffffff1667ffffffffffffffff16815260200160008201601c9054906101000a900460ff1615151515815250509050806040015161145257600073ffffffffffffffffffffffffffffffffffffffff16816000015173ffffffffffffffffffffffffffffffffffffffff1614611336578092505050611487565b5b60011561145157818060019003925050600460008381526020019081526020016000206040518060600160405290816000820160009054906101000a900473ffffffffffffffffffffffffffffffffffffffff1673ffffffffffffffffffffffffffffffffffffffff1673ffffffffffffffffffffffffffffffffffffffff1681526020016000820160149054906101000a900467ffffffffffffffff1667ffffffffffffffff1667ffffffffffffffff16815260200160008201601c9054906101000a900460ff1615151515815250509050600073ffffffffffffffffffffffffffffffffffffffff16816000015173ffffffffffffffffffffffffffffffffffffffff161461144c578092505050611487565b611337565b5b505b5b6040517fdf2d9b4200000000000000000000000000000000000000000000000000000000815260040160405180910390fd5b919050565b6000808273ffffffffffffffffffffffffffffffffffffffff163b119050919050565b60008373ffffffffffffffffffffffffffffffffffffffff1663150b7a026114d5610c8e565b8786866040518563ffffffff1660e01b81526004016114f794939291906123f8565b6020604051808303816000875af192505050801561153357506040513d601f19601f820116820180604052508101906115309190612459565b60015b6115ac573d8060008114611563576040519150601f19603f3d011682016040523d82523d6000602084013e611568565b606091505b5060008151036115a4576040517fd1a57ed600000000000000000000000000000000000000000000000000000000815260040160405180910390fd5b805181602001fd5b63150b7a0260e01b7bffffffffffffffffffffffffffffffffffffffffffffffffffffffff1916817bffffffffffffffffffffffffffffffffffffffffffffffffffffffff191614915050949350505050565b600080549050600073ffffffffffffffffffffffffffffffffffffffff168473ffffffffffffffffffffffffffffffffffffffff160361166b576040517f2e07630000000000000000000000000000000000000000000000000000000000815260040160405180910390fd5b600083036116a5576040517fb562e8dd00000000000000000000000000000000000000000000000000000000815260040160405180910390fd5b6116b260008583866119bf565b82600560008673ffffffffffffffffffffffffffffffffffffffff1673ffffffffffffffffffffffffffffffffffffffff16815260200190815260200160002060000160008282829054906101000a900467ffffffffffffffff160192506101000a81548167ffffffffffffffff021916908367ffffffffffffffff16021790555082600560008673ffffffffffffffffffffffffffffffffffffffff1673ffffffffffffffffffffffffffffffffffffffff16815260200190815260200160002060000160088282829054906101000a900467ffffffffffffffff160192506101000a81548167ffffffffffffffff021916908367ffffffffffffffff160217905550836004600083815260200190815260200160002060000160006101000a81548173ffffffffffffffffffffffffffffffffffffffff021916908373ffffffffffffffffffffffffffffffffffffffff160217905550426004600083815260200190815260200160002060000160146101000a81548167ffffffffffffffff021916908367ffffffffffffffff1602179055506000819050600084820190506118738673ffffffffffffffffffffffffffffffffffffffff1661148c565b15611938575b818673ffffffffffffffffffffffffffffffffffffffff16600073ffffffffffffffffffffffffffffffffffffffff167fddf252ad1be2c89b69c2b068fc378daa952ba7f163c4a11628f55a4df523b3ef60405160405180910390a46118e860008784806001019550876114af565b61191e576040517fd1a57ed600000000000000000000000000000000000000000000000000000000815260040160405180910390fd5b80821061187957826000541461193357600080fd5b6119a3565b5b818060010192508673ffffffffffffffffffffffffffffffffffffffff16600073ffffffffffffffffffffffffffffffffffffffff167fddf252ad1be2c89b69c2b068fc378daa952ba7f163c4a11628f55a4df523b3ef60405160405180910390a4808210611939575b8160008190555050506119b960008583866119c5565b50505050565b50505050565b50505050565b6040518060600160405280600073ffffffffffffffffffffffffffffffffffffffff168152602001600067ffffffffffffffff1681526020016000151581525090565b6000604051905090565b600080fd5b600080fd5b60007fffffffff0000000000000000000000000000000000000000000000000000000082169050919050565b611a5781611a22565b8114611a6257600080fd5b50565b600081359050611a7481611a4e565b92915050565b600060208284031215611a9057611a8f611a18565b5b6000611a9e84828501611a65565b91505092915050565b60008115159050919050565b611abc81611aa7565b82525050565b6000602082019050611ad76000830184611ab3565b92915050565b600080fd5b600080fd5b6000601f19601f8301169050919050565b7f4e487b7100000000000000000000000000000000000000000000000000000000600052604160045260246000fd5b611b3082611ae7565b810181811067ffffffffffffffff82111715611b4f57611b4e611af8565b5b80604052505050565b6000611b62611a0e565b9050611b6e8282611b27565b919050565b600067ffffffffffffffff821115611b8e57611b8d611af8565b5b611b9782611ae7565b9050602081019050919050565b82818337600083830152505050565b6000611bc6611bc184611b73565b611b58565b905082815260208101848484011115611be257611be1611ae2565b5b611bed848285611ba4565b509392505050565b600082601f830112611c0a57611c09611add565b5b8135611c1a848260208601611bb3565b91505092915050565b6000819050919050565b611c3681611c23565b8114611c4157600080fd5b50565b600081359050611c5381611c2d565b92915050565b60008060408385031215611c7057611c6f611a18565b5b600083013567ffffffffffffffff811115611c8e57611c8d611a1d565b5b611c9a85828601611bf5565b9250506020611cab85828601611c44565b9150509250929050565b611cbe81611c23565b82525050565b6000602082019050611cd96000830184611cb5565b92915050565b600081519050919050565b600082825260208201905092915050565b60005b83811015611d19578082015181840152602081019050611cfe565b60008484015250505050565b6000611d3082611cdf565b611d3a8185611cea565b9350611d4a818560208601611cfb565b611d5381611ae7565b840191505092915050565b60006020820190508181036000830152611d788184611d25565b905092915050565b600060208284031215611d9657611d95611a18565b5b6000611da484828501611c44565b91505092915050565b600073ffffffffffffffffffffffffffffffffffffffff82169050919050565b6000611dd882611dad565b9050919050565b611de881611dcd565b82525050565b6000602082019050611e036000830184611ddf565b92915050565b611e1281611dcd565b8114611e1d57600080fd5b50565b600081359050611e2f81611e09565b92915050565b60008060408385031215611e4c57611e4b611a18565b5b6000611e5a85828601611e20565b9250506020611e6b85828601611c44565b9150509250929050565b600080600060608486031215611e8e57611e8d611a18565b5b6000611e9c86828701611e20565b9350506020611ead86828701611e20565b9250506040611ebe86828701611c44565b9150509250925092565b600060208284031215611ede57611edd611a18565b5b6000611eec84828501611e20565b91505092915050565b611efe81611aa7565b8114611f0957600080fd5b50565b600081359050611f1b81611ef5565b92915050565b60008060408385031215611f3857611f37611a18565b5b6000611f4685828601611e20565b9250506020611f5785828601611f0c565b9150509250929050565b600067ffffffffffffffff821115611f7c57611f7b611af8565b5b611f8582611ae7565b9050602081019050919050565b6000611fa5611fa084611f61565b611b58565b905082815260208101848484011115611fc157611fc0611ae2565b5b611fcc848285611ba4565b509392505050565b600082601f830112611fe957611fe8611add565b5b8135611ff9848260208601611f92565b91505092915050565b6000806000806080858703121561201c5761201b611a18565b5b600061202a87828801611e20565b945050602061203b87828801611e20565b935050604061204c87828801611c44565b925050606085013567ffffffffffffffff81111561206d5761206c611a1d565b5b61207987828801611fd4565b91505092959194509250565b6000806040838503121561209c5761209b611a18565b5b60006120aa85828601611e20565b92505060206120bb85828601611e20565b9150509250929050565b7f4e487b7100000000000000000000000000000000000000000000000000000000600052602260045260246000fd5b6000600282049050600182168061210c57607f821691505b60208210810361211f5761211e6120c5565b5b50919050565b60008190508160005260206000209050919050565b60006020601f8301049050919050565b600082821b905092915050565b6000600883026121877fffffffffffffffffffffffffffffffffffffffffffffffffffffffffffffffff8261214a565b612191868361214a565b95508019841693508086168417925050509392505050565b6000819050919050565b60006121ce6121c96121c484611c23565b6121a9565b611c23565b9050919050565b6000819050919050565b6121e8836121b3565b6121fc6121f4826121d5565b848454612157565b825550505050565b600090565b612211612204565b61221c8184846121df565b505050565b5b8181101561224057612235600082612209565b600181019050612222565b5050565b601f8211156122855761225681612125565b61225f8461213a565b8101602085101561226e578190505b61228261227a8561213a565b830182612221565b50505b505050565b600082821c905092915050565b60006122a86000198460080261228a565b1980831691505092915050565b60006122c18383612297565b9150826002028217905092915050565b6122da82611cdf565b67ffffffffffffffff8111156122f3576122f2611af8565b5b6122fd82546120f4565b612308828285612244565b600060209050601f83116001811461233b5760008415612329578287015190505b61233385826122b5565b86555061239b565b601f19841661234986612125565b60005b828110156123715784890151825560018201915060208501945060208101905061234c565b8683101561238e578489015161238a601f891682612297565b8355505b6001600288020188555050505b505050505050565b600081519050919050565b600082825260208201905092915050565b60006123ca826123a3565b6123d481856123ae565b93506123e4818560208601611cfb565b6123ed81611ae7565b840191505092915050565b600060808201905061240d6000830187611ddf565b61241a6020830186611ddf565b6124276040830185611cb5565b818103606083015261243981846123bf565b905095945050505050565b60008151905061245381611a4e565b92915050565b60006020828403121561246f5761246e611a18565b5b600061247d84828501612444565b9150509291505056fea26469706673582212209334fd665cdd74d072abbb4d97d5f66f56ad82b3896b71ad1a746df9b208f5b364736f6c63430008110033",
  "linkReferences": {},
  "deployedLinkReferences": {}
}