{
  "_format": "hh-sol-artifact-1",
  "contractName": "Soul",
  "sourceName": "contracts/Soul.sol",
  "abi": [
    {
      "inputs": [],
      "stateMutability": "nonpayable",
      "type": "constructor"
    },
    {
      "inputs": [
        {
          "internalType": "bytes32[]",
          "name": "_merkleProof",
          "type": "bytes32[]"
        },
        {
          "internalType": "bytes32",
          "name": "_root",
          "type": "bytes32"
        },
        {
          "internalType": "bytes32",
          "name": "leaf",
          "type": "bytes32"
        }
      ],
      "name": "checkValidity",
      "outputs": [
        {
          "internalType": "bool",
          "name": "",
          "type": "bool"
        }
      ],
      "stateMutability": "view",
      "type": "function"
    },
    {
      "inputs": [
        {
          "internalType": "uint256",
          "name": "tokenId",
          "type": "uint256"
        }
      ],
      "name": "getRoot",
      "outputs": [
        {
          "internalType": "bytes32",
          "name": "",
          "type": "bytes32"
        }
      ],
      "stateMutability": "view",
      "type": "function"
    },
    {
      "inputs": [
        {
          "internalType": "bytes32",
          "name": "_root",
          "type": "bytes32"
        }
      ],
      "name": "mint",
      "outputs": [
        {
          "internalType": "uint256",
          "name": "",
          "type": "uint256"
        }
      ],
      "stateMutability": "nonpayable",
      "type": "function"
    },
    {
      "inputs": [
        {
          "internalType": "uint256",
          "name": "tokenId",
          "type": "uint256"
        }
      ],
      "name": "ownerOf",
      "outputs": [
        {
          "internalType": "address",
          "name": "owner",
          "type": "address"
        }
      ],
      "stateMutability": "view",
      "type": "function"
    },
    {
      "inputs": [
        {
          "internalType": "uint256",
          "name": "tokenId",
          "type": "uint256"
        },
        {
          "internalType": "bytes32[]",
          "name": "_merkleProof",
          "type": "bytes32[]"
        },
        {
          "internalType": "bytes32",
          "name": "leaf",
          "type": "bytes32"
        }
      ],
      "name": "recoverSoul",
      "outputs": [],
      "stateMutability": "nonpayable",
      "type": "function"
    }
  ],
  "bytecode": "0x6080604052600160025534801561001557600080fd5b506109c5806100256000396000f3fe608060405234801561001057600080fd5b50600436106100575760003560e01c80636352211e1461005c5780639b24b3b01461008c578063adf2cead146100bc578063b1f63b27146100ec578063ff26f1af14610108575b600080fd5b610076600480360381019061007191906104e4565b610138565b6040516100839190610552565b60405180910390f35b6100a660048036038101906100a191906104e4565b610174565b6040516100b39190610586565b60405180910390f35b6100d660048036038101906100d191906105cd565b610191565b6040516100e39190610609565b60405180910390f35b61010660048036038101906101019190610689565b610222565b005b610122600480360381019061011d91906106fd565b61035c565b60405161012f919061078c565b60405180910390f35b600080600083815260200190815260200160002060009054906101000a900473ffffffffffffffffffffffffffffffffffffffff169050919050565b600060016000838152602001908152602001600020549050919050565b6000816001600060025481526020019081526020016000208190555033600080600254815260200190815260200160002060006101000a81548173ffffffffffffffffffffffffffffffffffffffff021916908373ffffffffffffffffffffffffffffffffffffffff16021790555060026000815480929190610213906107d6565b91905055506002549050919050565b60003073ffffffffffffffffffffffffffffffffffffffff16636352211e866040518263ffffffff1660e01b815260040161025d9190610609565b602060405180830381865afa15801561027a573d6000803e3d6000fd5b505050506040513d601f19601f8201168201806040525081019061029e919061084a565b90506000600160008781526020019081526020016000205490506102c48585838661035c565b610303576040517f08c379a00000000000000000000000000000000000000000000000000000000081526004016102fa906108d4565b60405180910390fd5b3360008088815260200190815260200160002060006101000a81548173ffffffffffffffffffffffffffffffffffffffff021916908373ffffffffffffffffffffffffffffffffffffffff160217905550505050505050565b60006103aa858580806020026020016040519081016040528093929190818152602001838360200280828437600081840152601f19601f8201169050808301925050505050505084846103f5565b6103e9576040517f08c379a00000000000000000000000000000000000000000000000000000000081526004016103e090610940565b60405180910390fd5b60019050949350505050565b600082610402858461040c565b1490509392505050565b60008082905060005b8451811015610457576104428286838151811061043557610434610960565b5b6020026020010151610462565b9150808061044f906107d6565b915050610415565b508091505092915050565b600081831061047a57610475828461048d565b610485565b610484838361048d565b5b905092915050565b600082600052816020526040600020905092915050565b600080fd5b600080fd5b6000819050919050565b6104c1816104ae565b81146104cc57600080fd5b50565b6000813590506104de816104b8565b92915050565b6000602082840312156104fa576104f96104a4565b5b6000610508848285016104cf565b91505092915050565b600073ffffffffffffffffffffffffffffffffffffffff82169050919050565b600061053c82610511565b9050919050565b61054c81610531565b82525050565b60006020820190506105676000830184610543565b92915050565b6000819050919050565b6105808161056d565b82525050565b600060208201905061059b6000830184610577565b92915050565b6105aa8161056d565b81146105b557600080fd5b50565b6000813590506105c7816105a1565b92915050565b6000602082840312156105e3576105e26104a4565b5b60006105f1848285016105b8565b91505092915050565b610603816104ae565b82525050565b600060208201905061061e60008301846105fa565b92915050565b600080fd5b600080fd5b600080fd5b60008083601f84011261064957610648610624565b5b8235905067ffffffffffffffff81111561066657610665610629565b5b6020830191508360208202830111156106825761068161062e565b5b9250929050565b600080600080606085870312156106a3576106a26104a4565b5b60006106b1878288016104cf565b945050602085013567ffffffffffffffff8111156106d2576106d16104a9565b5b6106de87828801610633565b935093505060406106f1878288016105b8565b91505092959194509250565b60008060008060608587031215610717576107166104a4565b5b600085013567ffffffffffffffff811115610735576107346104a9565b5b61074187828801610633565b94509450506020610754878288016105b8565b9250506040610765878288016105b8565b91505092959194509250565b60008115159050919050565b61078681610771565b82525050565b60006020820190506107a1600083018461077d565b92915050565b7f4e487b7100000000000000000000000000000000000000000000000000000000600052601160045260246000fd5b60006107e1826104ae565b91507fffffffffffffffffffffffffffffffffffffffffffffffffffffffffffffffff8203610813576108126107a7565b5b600182019050919050565b61082781610531565b811461083257600080fd5b50565b6000815190506108448161081e565b92915050565b6000602082840312156108605761085f6104a4565b5b600061086e84828501610835565b91505092915050565b600082825260208201905092915050565b7f496e76616c6964207265636f7665727920696473000000000000000000000000600082015250565b60006108be601483610877565b91506108c982610888565b602082019050919050565b600060208201905081810360008301526108ed816108b1565b9050919050565b7f496e636f72726563742070726f6f660000000000000000000000000000000000600082015250565b600061092a600f83610877565b9150610935826108f4565b602082019050919050565b600060208201905081810360008301526109598161091d565b9050919050565b7f4e487b7100000000000000000000000000000000000000000000000000000000600052603260045260246000fdfea2646970667358221220143aba20d4acc37c35dfb066a6d75d5ffe0cff87a400cb6e1ad64bba2df5201264736f6c63430008110033",
  "linkReferences": {},
  "deployedLinkReferences": {}
}